{
  "_format": "hh-sol-artifact-1",
  "contractName": "CryptoDevs",
  "sourceName": "contracts/CryptoDevs.sol",
  "abi": [
    {
      "inputs": [
        {
          "internalType": "address",
          "name": "whitelistContract",
          "type": "address"
        }
      ],
      "stateMutability": "nonpayable",
      "type": "constructor"
    },
    {
      "inputs": [],
      "name": "ERC721EnumerableForbiddenBatchMint",
      "type": "error"
    },
    {
      "inputs": [
        {
          "internalType": "address",
          "name": "sender",
          "type": "address"
        },
        {
          "internalType": "uint256",
          "name": "tokenId",
          "type": "uint256"
        },
        {
          "internalType": "address",
          "name": "owner",
          "type": "address"
        }
      ],
      "name": "ERC721IncorrectOwner",
      "type": "error"
    },
    {
      "inputs": [
        {
          "internalType": "address",
          "name": "operator",
          "type": "address"
        },
        {
          "internalType": "uint256",
          "name": "tokenId",
          "type": "uint256"
        }
      ],
      "name": "ERC721InsufficientApproval",
      "type": "error"
    },
    {
      "inputs": [
        {
          "internalType": "address",
          "name": "approver",
          "type": "address"
        }
      ],
      "name": "ERC721InvalidApprover",
      "type": "error"
    },
    {
      "inputs": [
        {
          "internalType": "address",
          "name": "operator",
          "type": "address"
        }
      ],
      "name": "ERC721InvalidOperator",
      "type": "error"
    },
    {
      "inputs": [
        {
          "internalType": "address",
          "name": "owner",
          "type": "address"
        }
      ],
      "name": "ERC721InvalidOwner",
      "type": "error"
    },
    {
      "inputs": [
        {
          "internalType": "address",
          "name": "receiver",
          "type": "address"
        }
      ],
      "name": "ERC721InvalidReceiver",
      "type": "error"
    },
    {
      "inputs": [
        {
          "internalType": "address",
          "name": "sender",
          "type": "address"
        }
      ],
      "name": "ERC721InvalidSender",
      "type": "error"
    },
    {
      "inputs": [
        {
          "internalType": "uint256",
          "name": "tokenId",
          "type": "uint256"
        }
      ],
      "name": "ERC721NonexistentToken",
      "type": "error"
    },
    {
      "inputs": [
        {
          "internalType": "address",
          "name": "owner",
          "type": "address"
        },
        {
          "internalType": "uint256",
          "name": "index",
          "type": "uint256"
        }
      ],
      "name": "ERC721OutOfBoundsIndex",
      "type": "error"
    },
    {
      "inputs": [
        {
          "internalType": "address",
          "name": "owner",
          "type": "address"
        }
      ],
      "name": "OwnableInvalidOwner",
      "type": "error"
    },
    {
      "inputs": [
        {
          "internalType": "address",
          "name": "account",
          "type": "address"
        }
      ],
      "name": "OwnableUnauthorizedAccount",
      "type": "error"
    },
    {
      "anonymous": false,
      "inputs": [
        {
          "indexed": true,
          "internalType": "address",
          "name": "owner",
          "type": "address"
        },
        {
          "indexed": true,
          "internalType": "address",
          "name": "approved",
          "type": "address"
        },
        {
          "indexed": true,
          "internalType": "uint256",
          "name": "tokenId",
          "type": "uint256"
        }
      ],
      "name": "Approval",
      "type": "event"
    },
    {
      "anonymous": false,
      "inputs": [
        {
          "indexed": true,
          "internalType": "address",
          "name": "owner",
          "type": "address"
        },
        {
          "indexed": true,
          "internalType": "address",
          "name": "operator",
          "type": "address"
        },
        {
          "indexed": false,
          "internalType": "bool",
          "name": "approved",
          "type": "bool"
        }
      ],
      "name": "ApprovalForAll",
      "type": "event"
    },
    {
      "anonymous": false,
      "inputs": [
        {
          "indexed": true,
          "internalType": "address",
          "name": "previousOwner",
          "type": "address"
        },
        {
          "indexed": true,
          "internalType": "address",
          "name": "newOwner",
          "type": "address"
        }
      ],
      "name": "OwnershipTransferred",
      "type": "event"
    },
    {
      "anonymous": false,
      "inputs": [
        {
          "indexed": true,
          "internalType": "address",
          "name": "from",
          "type": "address"
        },
        {
          "indexed": true,
          "internalType": "address",
          "name": "to",
          "type": "address"
        },
        {
          "indexed": true,
          "internalType": "uint256",
          "name": "tokenId",
          "type": "uint256"
        }
      ],
      "name": "Transfer",
      "type": "event"
    },
    {
      "inputs": [],
      "name": "_price",
      "outputs": [
        {
          "internalType": "uint256",
          "name": "",
          "type": "uint256"
        }
      ],
      "stateMutability": "view",
      "type": "function"
    },
    {
      "inputs": [
        {
          "internalType": "address",
          "name": "to",
          "type": "address"
        },
        {
          "internalType": "uint256",
          "name": "tokenId",
          "type": "uint256"
        }
      ],
      "name": "approve",
      "outputs": [],
      "stateMutability": "nonpayable",
      "type": "function"
    },
    {
      "inputs": [
        {
          "internalType": "address",
          "name": "owner",
          "type": "address"
        }
      ],
      "name": "balanceOf",
      "outputs": [
        {
          "internalType": "uint256",
          "name": "",
          "type": "uint256"
        }
      ],
      "stateMutability": "view",
      "type": "function"
    },
    {
      "inputs": [
        {
          "internalType": "uint256",
          "name": "tokenId",
          "type": "uint256"
        }
      ],
      "name": "getApproved",
      "outputs": [
        {
          "internalType": "address",
          "name": "",
          "type": "address"
        }
      ],
      "stateMutability": "view",
      "type": "function"
    },
    {
      "inputs": [
        {
          "internalType": "address",
          "name": "owner",
          "type": "address"
        },
        {
          "internalType": "address",
          "name": "operator",
          "type": "address"
        }
      ],
      "name": "isApprovedForAll",
      "outputs": [
        {
          "internalType": "bool",
          "name": "",
          "type": "bool"
        }
      ],
      "stateMutability": "view",
      "type": "function"
    },
    {
      "inputs": [],
      "name": "maxTokenIds",
      "outputs": [
        {
          "internalType": "uint256",
          "name": "",
          "type": "uint256"
        }
      ],
      "stateMutability": "view",
      "type": "function"
    },
    {
      "inputs": [],
      "name": "mint",
      "outputs": [],
      "stateMutability": "payable",
      "type": "function"
    },
    {
      "inputs": [],
      "name": "name",
      "outputs": [
        {
          "internalType": "string",
          "name": "",
          "type": "string"
        }
      ],
      "stateMutability": "view",
      "type": "function"
    },
    {
      "inputs": [],
      "name": "owner",
      "outputs": [
        {
          "internalType": "address",
          "name": "",
          "type": "address"
        }
      ],
      "stateMutability": "view",
      "type": "function"
    },
    {
      "inputs": [
        {
          "internalType": "uint256",
          "name": "tokenId",
          "type": "uint256"
        }
      ],
      "name": "ownerOf",
      "outputs": [
        {
          "internalType": "address",
          "name": "",
          "type": "address"
        }
      ],
      "stateMutability": "view",
      "type": "function"
    },
    {
      "inputs": [],
      "name": "renounceOwnership",
      "outputs": [],
      "stateMutability": "nonpayable",
      "type": "function"
    },
    {
      "inputs": [],
      "name": "reservedTokens",
      "outputs": [
        {
          "internalType": "uint256",
          "name": "",
          "type": "uint256"
        }
      ],
      "stateMutability": "view",
      "type": "function"
    },
    {
      "inputs": [],
      "name": "reservedTokensClaimed",
      "outputs": [
        {
          "internalType": "uint256",
          "name": "",
          "type": "uint256"
        }
      ],
      "stateMutability": "view",
      "type": "function"
    },
    {
      "inputs": [
        {
          "internalType": "address",
          "name": "from",
          "type": "address"
        },
        {
          "internalType": "address",
          "name": "to",
          "type": "address"
        },
        {
          "internalType": "uint256",
          "name": "tokenId",
          "type": "uint256"
        }
      ],
      "name": "safeTransferFrom",
      "outputs": [],
      "stateMutability": "nonpayable",
      "type": "function"
    },
    {
      "inputs": [
        {
          "internalType": "address",
          "name": "from",
          "type": "address"
        },
        {
          "internalType": "address",
          "name": "to",
          "type": "address"
        },
        {
          "internalType": "uint256",
          "name": "tokenId",
          "type": "uint256"
        },
        {
          "internalType": "bytes",
          "name": "data",
          "type": "bytes"
        }
      ],
      "name": "safeTransferFrom",
      "outputs": [],
      "stateMutability": "nonpayable",
      "type": "function"
    },
    {
      "inputs": [
        {
          "internalType": "address",
          "name": "operator",
          "type": "address"
        },
        {
          "internalType": "bool",
          "name": "approved",
          "type": "bool"
        }
      ],
      "name": "setApprovalForAll",
      "outputs": [],
      "stateMutability": "nonpayable",
      "type": "function"
    },
    {
      "inputs": [
        {
          "internalType": "bytes4",
          "name": "interfaceId",
          "type": "bytes4"
        }
      ],
      "name": "supportsInterface",
      "outputs": [
        {
          "internalType": "bool",
          "name": "",
          "type": "bool"
        }
      ],
      "stateMutability": "view",
      "type": "function"
    },
    {
      "inputs": [],
      "name": "symbol",
      "outputs": [
        {
          "internalType": "string",
          "name": "",
          "type": "string"
        }
      ],
      "stateMutability": "view",
      "type": "function"
    },
    {
      "inputs": [
        {
          "internalType": "uint256",
          "name": "index",
          "type": "uint256"
        }
      ],
      "name": "tokenByIndex",
      "outputs": [
        {
          "internalType": "uint256",
          "name": "",
          "type": "uint256"
        }
      ],
      "stateMutability": "view",
      "type": "function"
    },
    {
      "inputs": [
        {
          "internalType": "address",
          "name": "owner",
          "type": "address"
        },
        {
          "internalType": "uint256",
          "name": "index",
          "type": "uint256"
        }
      ],
      "name": "tokenOfOwnerByIndex",
      "outputs": [
        {
          "internalType": "uint256",
          "name": "",
          "type": "uint256"
        }
      ],
      "stateMutability": "view",
      "type": "function"
    },
    {
      "inputs": [
        {
          "internalType": "uint256",
          "name": "tokenId",
          "type": "uint256"
        }
      ],
      "name": "tokenURI",
      "outputs": [
        {
          "internalType": "string",
          "name": "",
          "type": "string"
        }
      ],
      "stateMutability": "view",
      "type": "function"
    },
    {
      "inputs": [],
      "name": "totalSupply",
      "outputs": [
        {
          "internalType": "uint256",
          "name": "",
          "type": "uint256"
        }
      ],
      "stateMutability": "view",
      "type": "function"
    },
    {
      "inputs": [
        {
          "internalType": "address",
          "name": "from",
          "type": "address"
        },
        {
          "internalType": "address",
          "name": "to",
          "type": "address"
        },
        {
          "internalType": "uint256",
          "name": "tokenId",
          "type": "uint256"
        }
      ],
      "name": "transferFrom",
      "outputs": [],
      "stateMutability": "nonpayable",
      "type": "function"
    },
    {
      "inputs": [
        {
          "internalType": "address",
          "name": "newOwner",
          "type": "address"
        }
      ],
      "name": "transferOwnership",
      "outputs": [],
      "stateMutability": "nonpayable",
      "type": "function"
    },
    {
      "inputs": [],
      "name": "withdraw",
      "outputs": [],
      "stateMutability": "nonpayable",
      "type": "function"
    }
  ],
  "bytecode": "0x60806040526000600d553480156200001657600080fd5b506040516200364a3803806200364a83398181016040528101906200003c91906200036b565b806040518060400160405280600b81526020017f43727970746f20446576730000000000000000000000000000000000000000008152506040518060400160405280600281526020017f43440000000000000000000000000000000000000000000000000000000000008152508160009081620000ba919062000617565b508060019081620000cc919062000617565b505050600073ffffffffffffffffffffffffffffffffffffffff168173ffffffffffffffffffffffffffffffffffffffff1603620001445760006040517f1e4fbdf70000000000000000000000000000000000000000000000000000000081526004016200013b91906200070f565b60405180910390fd5b62000155816200023b60201b60201c565b5080600b60006101000a81548173ffffffffffffffffffffffffffffffffffffffff021916908373ffffffffffffffffffffffffffffffffffffffff160217905550600b60009054906101000a900473ffffffffffffffffffffffffffffffffffffffff1673ffffffffffffffffffffffffffffffffffffffff166331a721886040518163ffffffff1660e01b8152600401602060405180830381865afa15801562000205573d6000803e3d6000fd5b505050506040513d601f19601f820116820180604052508101906200022b91906200076a565b60ff16600c81905550506200079c565b6000600a60009054906101000a900473ffffffffffffffffffffffffffffffffffffffff16905081600a60006101000a81548173ffffffffffffffffffffffffffffffffffffffff021916908373ffffffffffffffffffffffffffffffffffffffff1602179055508173ffffffffffffffffffffffffffffffffffffffff168173ffffffffffffffffffffffffffffffffffffffff167f8be0079c531659141344cd1fd0a4f28419497f9722a3daafe3b4186f6b6457e060405160405180910390a35050565b600080fd5b600073ffffffffffffffffffffffffffffffffffffffff82169050919050565b6000620003338262000306565b9050919050565b620003458162000326565b81146200035157600080fd5b50565b60008151905062000365816200033a565b92915050565b60006020828403121562000384576200038362000301565b5b6000620003948482850162000354565b91505092915050565b600081519050919050565b7f4e487b7100000000000000000000000000000000000000000000000000000000600052604160045260246000fd5b7f4e487b7100000000000000000000000000000000000000000000000000000000600052602260045260246000fd5b600060028204905060018216806200041f57607f821691505b602082108103620004355762000434620003d7565b5b50919050565b60008190508160005260206000209050919050565b60006020601f8301049050919050565b600082821b905092915050565b6000600883026200049f7fffffffffffffffffffffffffffffffffffffffffffffffffffffffffffffffff8262000460565b620004ab868362000460565b95508019841693508086168417925050509392505050565b6000819050919050565b6000819050919050565b6000620004f8620004f2620004ec84620004c3565b620004cd565b620004c3565b9050919050565b6000819050919050565b6200051483620004d7565b6200052c6200052382620004ff565b8484546200046d565b825550505050565b600090565b6200054362000534565b6200055081848462000509565b505050565b5b8181101562000578576200056c60008262000539565b60018101905062000556565b5050565b601f821115620005c75762000591816200043b565b6200059c8462000450565b81016020851015620005ac578190505b620005c4620005bb8562000450565b83018262000555565b50505b505050565b600082821c905092915050565b6000620005ec60001984600802620005cc565b1980831691505092915050565b6000620006078383620005d9565b9150826002028217905092915050565b62000622826200039d565b67ffffffffffffffff8111156200063e576200063d620003a8565b5b6200064a825462000406565b620006578282856200057c565b600060209050601f8311600181146200068f57600084156200067a578287015190505b620006868582620005f9565b865550620006f6565b601f1984166200069f866200043b565b60005b82811015620006c957848901518255600182019150602085019450602081019050620006a2565b86831015620006e95784890151620006e5601f891682620005d9565b8355505b6001600288020188555050505b505050505050565b620007098162000326565b82525050565b6000602082019050620007266000830184620006fe565b92915050565b600060ff82169050919050565b62000744816200072c565b81146200075057600080fd5b50565b600081519050620007648162000739565b92915050565b60006020828403121562000783576200078262000301565b5b6000620007938482850162000753565b91505092915050565b612e9e80620007ac6000396000f3fe6080604052600436106101665760003560e01c80634f6ccce7116100d157806395d89b411161008a578063c87b56dd11610064578063c87b56dd1461050b578063e985e9c514610548578063f2fde38b14610585578063fdddd2cd146105ae57610166565b806395d89b411461048e578063a22cb465146104b9578063b88d4fde146104e257610166565b80634f6ccce71461036a5780635f769621146103a75780636352211e146103d257806370a082311461040f578063715018a61461044c5780638da5cb5b1461046357610166565b806318160ddd1161012357806318160ddd1461026e578063235b6ea11461029957806323b872dd146102c45780632f745c59146102ed5780633ccfd60b1461032a57806342842e0e1461034157610166565b806301ffc9a71461016b57806306fdde03146101a8578063081812fc146101d3578063095ea7b3146102105780631249c58b1461023957806315a5534714610243575b600080fd5b34801561017757600080fd5b50610192600480360381019061018d91906123bb565b6105d9565b60405161019f9190612403565b60405180910390f35b3480156101b457600080fd5b506101bd610653565b6040516101ca91906124ae565b60405180910390f35b3480156101df57600080fd5b506101fa60048036038101906101f59190612506565b6106e5565b6040516102079190612574565b60405180910390f35b34801561021c57600080fd5b50610237600480360381019061023291906125bb565b610701565b005b610241610717565b005b34801561024f57600080fd5b506102586108fc565b604051610265919061260a565b60405180910390f35b34801561027a57600080fd5b50610283610902565b604051610290919061260a565b60405180910390f35b3480156102a557600080fd5b506102ae61090f565b6040516102bb919061260a565b60405180910390f35b3480156102d057600080fd5b506102eb60048036038101906102e69190612625565b61091a565b005b3480156102f957600080fd5b50610314600480360381019061030f91906125bb565b610a1c565b604051610321919061260a565b60405180910390f35b34801561033657600080fd5b5061033f610ac5565b005b34801561034d57600080fd5b5061036860048036038101906103639190612625565b610b8f565b005b34801561037657600080fd5b50610391600480360381019061038c9190612506565b610baf565b60405161039e919061260a565b60405180910390f35b3480156103b357600080fd5b506103bc610c25565b6040516103c9919061260a565b60405180910390f35b3480156103de57600080fd5b506103f960048036038101906103f49190612506565b610c2a565b6040516104069190612574565b60405180910390f35b34801561041b57600080fd5b5061043660048036038101906104319190612678565b610c3c565b604051610443919061260a565b60405180910390f35b34801561045857600080fd5b50610461610cf6565b005b34801561046f57600080fd5b50610478610d0a565b6040516104859190612574565b60405180910390f35b34801561049a57600080fd5b506104a3610d34565b6040516104b091906124ae565b60405180910390f35b3480156104c557600080fd5b506104e060048036038101906104db91906126d1565b610dc6565b005b3480156104ee57600080fd5b5061050960048036038101906105049190612846565b610ddc565b005b34801561051757600080fd5b50610532600480360381019061052d9190612506565b610df9565b60405161053f91906124ae565b60405180910390f35b34801561055457600080fd5b5061056f600480360381019061056a91906128c9565b610e62565b60405161057c9190612403565b60405180910390f35b34801561059157600080fd5b506105ac60048036038101906105a79190612678565b610ef6565b005b3480156105ba57600080fd5b506105c3610f7c565b6040516105d0919061260a565b60405180910390f35b60007f780e9d63000000000000000000000000000000000000000000000000000000007bffffffffffffffffffffffffffffffffffffffffffffffffffffffff1916827bffffffffffffffffffffffffffffffffffffffffffffffffffffffff1916148061064c575061064b82610f82565b5b9050919050565b60606000805461066290612938565b80601f016020809104026020016040519081016040528092919081815260200182805461068e90612938565b80156106db5780601f106106b0576101008083540402835291602001916106db565b820191906000526020600020905b8154815290600101906020018083116106be57829003601f168201915b5050505050905090565b60006106f082611064565b506106fa826110ec565b9050919050565b610713828261070e611129565b611131565b5050565b6014600d54600c54610727610902565b6107319190612998565b61073b91906129cc565b1061077b576040517f08c379a000000000000000000000000000000000000000000000000000000000815260040161077290612a4c565b60405180910390fd5b600b60009054906101000a900473ffffffffffffffffffffffffffffffffffffffff1673ffffffffffffffffffffffffffffffffffffffff166306c933d8336040518263ffffffff1660e01b81526004016107d69190612574565b602060405180830381865afa1580156107f3573d6000803e3d6000fd5b505050506040513d601f19601f820116820180604052508101906108179190612a81565b80156108295750662386f26fc1000034105b1561089857600061083933610c3c565b14610879576040517f08c379a000000000000000000000000000000000000000000000000000000000815260040161087090612afa565b60405180910390fd5b6001600d600082825461088c9190612998565b925050819055506108e3565b662386f26fc100003410156108e2576040517f08c379a00000000000000000000000000000000000000000000000000000000081526004016108d990612b66565b60405180910390fd5b5b60006108ed610902565b90506108f93382611143565b50565b600c5481565b6000600880549050905090565b662386f26fc1000081565b600073ffffffffffffffffffffffffffffffffffffffff168273ffffffffffffffffffffffffffffffffffffffff160361098c5760006040517f64a0ae920000000000000000000000000000000000000000000000000000000081526004016109839190612574565b60405180910390fd5b60006109a0838361099b611129565b611161565b90508373ffffffffffffffffffffffffffffffffffffffff168173ffffffffffffffffffffffffffffffffffffffff1614610a16578382826040517f64283d7b000000000000000000000000000000000000000000000000000000008152600401610a0d93929190612b86565b60405180910390fd5b50505050565b6000610a2783610c3c565b8210610a6c5782826040517fa57d13dc000000000000000000000000000000000000000000000000000000008152600401610a63929190612bbd565b60405180910390fd5b600660008473ffffffffffffffffffffffffffffffffffffffff1673ffffffffffffffffffffffffffffffffffffffff168152602001908152602001600020600083815260200190815260200160002054905092915050565b610acd61127e565b6000610ad7610d0a565b9050600047905060008273ffffffffffffffffffffffffffffffffffffffff1682604051610b0490612c17565b60006040518083038185875af1925050503d8060008114610b41576040519150601f19603f3d011682016040523d82523d6000602084013e610b46565b606091505b5050905080610b8a576040517f08c379a0000000000000000000000000000000000000000000000000000000008152600401610b8190612c78565b60405180910390fd5b505050565b610baa83838360405180602001604052806000815250610ddc565b505050565b6000610bb9610902565b8210610bff576000826040517fa57d13dc000000000000000000000000000000000000000000000000000000008152600401610bf6929190612bbd565b60405180910390fd5b60088281548110610c1357610c12612c98565b5b90600052602060002001549050919050565b601481565b6000610c3582611064565b9050919050565b60008073ffffffffffffffffffffffffffffffffffffffff168273ffffffffffffffffffffffffffffffffffffffff1603610caf5760006040517f89c62b64000000000000000000000000000000000000000000000000000000008152600401610ca69190612574565b60405180910390fd5b600360008373ffffffffffffffffffffffffffffffffffffffff1673ffffffffffffffffffffffffffffffffffffffff168152602001908152602001600020549050919050565b610cfe61127e565b610d086000611305565b565b6000600a60009054906101000a900473ffffffffffffffffffffffffffffffffffffffff16905090565b606060018054610d4390612938565b80601f0160208091040260200160405190810160405280929190818152602001828054610d6f90612938565b8015610dbc5780601f10610d9157610100808354040283529160200191610dbc565b820191906000526020600020905b815481529060010190602001808311610d9f57829003601f168201915b5050505050905090565b610dd8610dd1611129565b83836113cb565b5050565b610de784848461091a565b610df38484848461153a565b50505050565b6060610e0482611064565b506000610e0f6116f1565b90506000815111610e2f5760405180602001604052806000815250610e5a565b80610e3984611708565b604051602001610e4a929190612d03565b6040516020818303038152906040525b915050919050565b6000600560008473ffffffffffffffffffffffffffffffffffffffff1673ffffffffffffffffffffffffffffffffffffffff16815260200190815260200160002060008373ffffffffffffffffffffffffffffffffffffffff1673ffffffffffffffffffffffffffffffffffffffff16815260200190815260200160002060009054906101000a900460ff16905092915050565b610efe61127e565b600073ffffffffffffffffffffffffffffffffffffffff168173ffffffffffffffffffffffffffffffffffffffff1603610f705760006040517f1e4fbdf7000000000000000000000000000000000000000000000000000000008152600401610f679190612574565b60405180910390fd5b610f7981611305565b50565b600d5481565b60007f80ac58cd000000000000000000000000000000000000000000000000000000007bffffffffffffffffffffffffffffffffffffffffffffffffffffffff1916827bffffffffffffffffffffffffffffffffffffffffffffffffffffffff1916148061104d57507f5b5e139f000000000000000000000000000000000000000000000000000000007bffffffffffffffffffffffffffffffffffffffffffffffffffffffff1916827bffffffffffffffffffffffffffffffffffffffffffffffffffffffff1916145b8061105d575061105c826117d6565b5b9050919050565b60008061107083611840565b9050600073ffffffffffffffffffffffffffffffffffffffff168173ffffffffffffffffffffffffffffffffffffffff16036110e357826040517f7e2732890000000000000000000000000000000000000000000000000000000081526004016110da919061260a565b60405180910390fd5b80915050919050565b60006004600083815260200190815260200160002060009054906101000a900473ffffffffffffffffffffffffffffffffffffffff169050919050565b600033905090565b61113e838383600161187d565b505050565b61115d828260405180602001604052806000815250611a42565b5050565b60008061116f858585611a5e565b9050600073ffffffffffffffffffffffffffffffffffffffff168173ffffffffffffffffffffffffffffffffffffffff16036111b3576111ae84611c78565b6111f2565b8473ffffffffffffffffffffffffffffffffffffffff168173ffffffffffffffffffffffffffffffffffffffff16146111f1576111f08185611cc1565b5b5b600073ffffffffffffffffffffffffffffffffffffffff168573ffffffffffffffffffffffffffffffffffffffff16036112345761122f84611e22565b611273565b8473ffffffffffffffffffffffffffffffffffffffff168173ffffffffffffffffffffffffffffffffffffffff1614611272576112718585611ef3565b5b5b809150509392505050565b611286611129565b73ffffffffffffffffffffffffffffffffffffffff166112a4610d0a565b73ffffffffffffffffffffffffffffffffffffffff1614611303576112c7611129565b6040517f118cdaa70000000000000000000000000000000000000000000000000000000081526004016112fa9190612574565b60405180910390fd5b565b6000600a60009054906101000a900473ffffffffffffffffffffffffffffffffffffffff16905081600a60006101000a81548173ffffffffffffffffffffffffffffffffffffffff021916908373ffffffffffffffffffffffffffffffffffffffff1602179055508173ffffffffffffffffffffffffffffffffffffffff168173ffffffffffffffffffffffffffffffffffffffff167f8be0079c531659141344cd1fd0a4f28419497f9722a3daafe3b4186f6b6457e060405160405180910390a35050565b600073ffffffffffffffffffffffffffffffffffffffff168273ffffffffffffffffffffffffffffffffffffffff160361143c57816040517f5b08ba180000000000000000000000000000000000000000000000000000000081526004016114339190612574565b60405180910390fd5b80600560008573ffffffffffffffffffffffffffffffffffffffff1673ffffffffffffffffffffffffffffffffffffffff16815260200190815260200160002060008473ffffffffffffffffffffffffffffffffffffffff1673ffffffffffffffffffffffffffffffffffffffff16815260200190815260200160002060006101000a81548160ff0219169083151502179055508173ffffffffffffffffffffffffffffffffffffffff168373ffffffffffffffffffffffffffffffffffffffff167f17307eab39ab6107e8899845ad3d59bd9653f200f220920489ca2b5937696c318360405161152d9190612403565b60405180910390a3505050565b60008373ffffffffffffffffffffffffffffffffffffffff163b11156116eb578273ffffffffffffffffffffffffffffffffffffffff1663150b7a0261157e611129565b8685856040518563ffffffff1660e01b81526004016115a09493929190612d7c565b6020604051808303816000875af19250505080156115dc57506040513d601f19601f820116820180604052508101906115d99190612ddd565b60015b611660573d806000811461160c576040519150601f19603f3d011682016040523d82523d6000602084013e611611565b606091505b50600081510361165857836040517f64a0ae9200000000000000000000000000000000000000000000000000000000815260040161164f9190612574565b60405180910390fd5b805181602001fd5b63150b7a0260e01b7bffffffffffffffffffffffffffffffffffffffffffffffffffffffff1916817bffffffffffffffffffffffffffffffffffffffffffffffffffffffff1916146116e957836040517f64a0ae920000000000000000000000000000000000000000000000000000000081526004016116e09190612574565b60405180910390fd5b505b50505050565b606060405180602001604052806000815250905090565b60606000600161171784611f7e565b01905060008167ffffffffffffffff8111156117365761173561271b565b5b6040519080825280601f01601f1916602001820160405280156117685781602001600182028036833780820191505090505b509050600082602001820190505b6001156117cb578080600190039150507f3031323334353637383961626364656600000000000000000000000000000000600a86061a8153600a85816117bf576117be612e0a565b5b04945060008503611776575b819350505050919050565b60007f01ffc9a7000000000000000000000000000000000000000000000000000000007bffffffffffffffffffffffffffffffffffffffffffffffffffffffff1916827bffffffffffffffffffffffffffffffffffffffffffffffffffffffff1916149050919050565b60006002600083815260200190815260200160002060009054906101000a900473ffffffffffffffffffffffffffffffffffffffff169050919050565b80806118b65750600073ffffffffffffffffffffffffffffffffffffffff168273ffffffffffffffffffffffffffffffffffffffff1614155b156119ea5760006118c684611064565b9050600073ffffffffffffffffffffffffffffffffffffffff168373ffffffffffffffffffffffffffffffffffffffff161415801561193157508273ffffffffffffffffffffffffffffffffffffffff168173ffffffffffffffffffffffffffffffffffffffff1614155b801561194457506119428184610e62565b155b1561198657826040517fa9fbf51f00000000000000000000000000000000000000000000000000000000815260040161197d9190612574565b60405180910390fd5b81156119e857838573ffffffffffffffffffffffffffffffffffffffff168273ffffffffffffffffffffffffffffffffffffffff167f8c5be1e5ebec7d5bd14f71427d1e84f3dd0314c0f7b2291e5b200ac8c7c3b92560405160405180910390a45b505b836004600085815260200190815260200160002060006101000a81548173ffffffffffffffffffffffffffffffffffffffff021916908373ffffffffffffffffffffffffffffffffffffffff16021790555050505050565b611a4c83836120d1565b611a59600084848461153a565b505050565b600080611a6a84611840565b9050600073ffffffffffffffffffffffffffffffffffffffff168373ffffffffffffffffffffffffffffffffffffffff1614611aac57611aab8184866121ca565b5b600073ffffffffffffffffffffffffffffffffffffffff168173ffffffffffffffffffffffffffffffffffffffff1614611b3d57611aee60008560008061187d565b6001600360008373ffffffffffffffffffffffffffffffffffffffff1673ffffffffffffffffffffffffffffffffffffffff168152602001908152602001600020600082825403925050819055505b600073ffffffffffffffffffffffffffffffffffffffff168573ffffffffffffffffffffffffffffffffffffffff1614611bc0576001600360008773ffffffffffffffffffffffffffffffffffffffff1673ffffffffffffffffffffffffffffffffffffffff168152602001908152602001600020600082825401925050819055505b846002600086815260200190815260200160002060006101000a81548173ffffffffffffffffffffffffffffffffffffffff021916908373ffffffffffffffffffffffffffffffffffffffff160217905550838573ffffffffffffffffffffffffffffffffffffffff168273ffffffffffffffffffffffffffffffffffffffff167fddf252ad1be2c89b69c2b068fc378daa952ba7f163c4a11628f55a4df523b3ef60405160405180910390a4809150509392505050565b6008805490506009600083815260200190815260200160002081905550600881908060018154018082558091505060019003906000526020600020016000909190919091505550565b6000611ccc83610c3c565b9050600060076000848152602001908152602001600020549050818114611db1576000600660008673ffffffffffffffffffffffffffffffffffffffff1673ffffffffffffffffffffffffffffffffffffffff168152602001908152602001600020600084815260200190815260200160002054905080600660008773ffffffffffffffffffffffffffffffffffffffff1673ffffffffffffffffffffffffffffffffffffffff168152602001908152602001600020600084815260200190815260200160002081905550816007600083815260200190815260200160002081905550505b6007600084815260200190815260200160002060009055600660008573ffffffffffffffffffffffffffffffffffffffff1673ffffffffffffffffffffffffffffffffffffffff16815260200190815260200160002060008381526020019081526020016000206000905550505050565b60006001600880549050611e3691906129cc565b9050600060096000848152602001908152602001600020549050600060088381548110611e6657611e65612c98565b5b906000526020600020015490508060088381548110611e8857611e87612c98565b5b906000526020600020018190555081600960008381526020019081526020016000208190555060096000858152602001908152602001600020600090556008805480611ed757611ed6612e39565b5b6001900381819060005260206000200160009055905550505050565b60006001611f0084610c3c565b611f0a91906129cc565b905081600660008573ffffffffffffffffffffffffffffffffffffffff1673ffffffffffffffffffffffffffffffffffffffff168152602001908152602001600020600083815260200190815260200160002081905550806007600084815260200190815260200160002081905550505050565b600080600090507a184f03e93ff9f4daa797ed6e38ed64bf6a1f0100000000000000008310611fdc577a184f03e93ff9f4daa797ed6e38ed64bf6a1f0100000000000000008381611fd257611fd1612e0a565b5b0492506040810190505b6d04ee2d6d415b85acef81000000008310612019576d04ee2d6d415b85acef8100000000838161200f5761200e612e0a565b5b0492506020810190505b662386f26fc10000831061204857662386f26fc10000838161203e5761203d612e0a565b5b0492506010810190505b6305f5e1008310612071576305f5e100838161206757612066612e0a565b5b0492506008810190505b612710831061209657612710838161208c5761208b612e0a565b5b0492506004810190505b606483106120b957606483816120af576120ae612e0a565b5b0492506002810190505b600a83106120c8576001810190505b80915050919050565b600073ffffffffffffffffffffffffffffffffffffffff168273ffffffffffffffffffffffffffffffffffffffff16036121435760006040517f64a0ae9200000000000000000000000000000000000000000000000000000000815260040161213a9190612574565b60405180910390fd5b600061215183836000611161565b9050600073ffffffffffffffffffffffffffffffffffffffff168173ffffffffffffffffffffffffffffffffffffffff16146121c55760006040517f73c6ac6e0000000000000000000000000000000000000000000000000000000081526004016121bc9190612574565b60405180910390fd5b505050565b6121d583838361228e565b61228957600073ffffffffffffffffffffffffffffffffffffffff168373ffffffffffffffffffffffffffffffffffffffff160361224a57806040517f7e273289000000000000000000000000000000000000000000000000000000008152600401612241919061260a565b60405180910390fd5b81816040517f177e802f000000000000000000000000000000000000000000000000000000008152600401612280929190612bbd565b60405180910390fd5b505050565b60008073ffffffffffffffffffffffffffffffffffffffff168373ffffffffffffffffffffffffffffffffffffffff161415801561234657508273ffffffffffffffffffffffffffffffffffffffff168473ffffffffffffffffffffffffffffffffffffffff16148061230757506123068484610e62565b5b8061234557508273ffffffffffffffffffffffffffffffffffffffff1661232d836110ec565b73ffffffffffffffffffffffffffffffffffffffff16145b5b90509392505050565b6000604051905090565b600080fd5b600080fd5b60007fffffffff0000000000000000000000000000000000000000000000000000000082169050919050565b61239881612363565b81146123a357600080fd5b50565b6000813590506123b58161238f565b92915050565b6000602082840312156123d1576123d0612359565b5b60006123df848285016123a6565b91505092915050565b60008115159050919050565b6123fd816123e8565b82525050565b600060208201905061241860008301846123f4565b92915050565b600081519050919050565b600082825260208201905092915050565b60005b8381101561245857808201518184015260208101905061243d565b60008484015250505050565b6000601f19601f8301169050919050565b60006124808261241e565b61248a8185612429565b935061249a81856020860161243a565b6124a381612464565b840191505092915050565b600060208201905081810360008301526124c88184612475565b905092915050565b6000819050919050565b6124e3816124d0565b81146124ee57600080fd5b50565b600081359050612500816124da565b92915050565b60006020828403121561251c5761251b612359565b5b600061252a848285016124f1565b91505092915050565b600073ffffffffffffffffffffffffffffffffffffffff82169050919050565b600061255e82612533565b9050919050565b61256e81612553565b82525050565b60006020820190506125896000830184612565565b92915050565b61259881612553565b81146125a357600080fd5b50565b6000813590506125b58161258f565b92915050565b600080604083850312156125d2576125d1612359565b5b60006125e0858286016125a6565b92505060206125f1858286016124f1565b9150509250929050565b612604816124d0565b82525050565b600060208201905061261f60008301846125fb565b92915050565b60008060006060848603121561263e5761263d612359565b5b600061264c868287016125a6565b935050602061265d868287016125a6565b925050604061266e868287016124f1565b9150509250925092565b60006020828403121561268e5761268d612359565b5b600061269c848285016125a6565b91505092915050565b6126ae816123e8565b81146126b957600080fd5b50565b6000813590506126cb816126a5565b92915050565b600080604083850312156126e8576126e7612359565b5b60006126f6858286016125a6565b9250506020612707858286016126bc565b9150509250929050565b600080fd5b600080fd5b7f4e487b7100000000000000000000000000000000000000000000000000000000600052604160045260246000fd5b61275382612464565b810181811067ffffffffffffffff821117156127725761277161271b565b5b80604052505050565b600061278561234f565b9050612791828261274a565b919050565b600067ffffffffffffffff8211156127b1576127b061271b565b5b6127ba82612464565b9050602081019050919050565b82818337600083830152505050565b60006127e96127e484612796565b61277b565b90508281526020810184848401111561280557612804612716565b5b6128108482856127c7565b509392505050565b600082601f83011261282d5761282c612711565b5b813561283d8482602086016127d6565b91505092915050565b600080600080608085870312156128605761285f612359565b5b600061286e878288016125a6565b945050602061287f878288016125a6565b9350506040612890878288016124f1565b925050606085013567ffffffffffffffff8111156128b1576128b061235e565b5b6128bd87828801612818565b91505092959194509250565b600080604083850312156128e0576128df612359565b5b60006128ee858286016125a6565b92505060206128ff858286016125a6565b9150509250929050565b7f4e487b7100000000000000000000000000000000000000000000000000000000600052602260045260246000fd5b6000600282049050600182168061295057607f821691505b60208210810361296357612962612909565b5b50919050565b7f4e487b7100000000000000000000000000000000000000000000000000000000600052601160045260246000fd5b60006129a3826124d0565b91506129ae836124d0565b92508282019050808211156129c6576129c5612969565b5b92915050565b60006129d7826124d0565b91506129e2836124d0565b92508282039050818111156129fa576129f9612969565b5b92915050565b7f45584345454445445f4d41585f535550504c5900000000000000000000000000600082015250565b6000612a36601383612429565b9150612a4182612a00565b602082019050919050565b60006020820190508181036000830152612a6581612a29565b9050919050565b600081519050612a7b816126a5565b92915050565b600060208284031215612a9757612a96612359565b5b6000612aa584828501612a6c565b91505092915050565b7f414c52454144595f4f574e454400000000000000000000000000000000000000600082015250565b6000612ae4600d83612429565b9150612aef82612aae565b602082019050919050565b60006020820190508181036000830152612b1381612ad7565b9050919050565b7f4e4f545f454e4f5547485f455448455200000000000000000000000000000000600082015250565b6000612b50601083612429565b9150612b5b82612b1a565b602082019050919050565b60006020820190508181036000830152612b7f81612b43565b9050919050565b6000606082019050612b9b6000830186612565565b612ba860208301856125fb565b612bb56040830184612565565b949350505050565b6000604082019050612bd26000830185612565565b612bdf60208301846125fb565b9392505050565b600081905092915050565b50565b6000612c01600083612be6565b9150612c0c82612bf1565b600082019050919050565b6000612c2282612bf4565b9150819050919050565b7f4661696c656420746f2073656e64204574686572000000000000000000000000600082015250565b6000612c62601483612429565b9150612c6d82612c2c565b602082019050919050565b60006020820190508181036000830152612c9181612c55565b9050919050565b7f4e487b7100000000000000000000000000000000000000000000000000000000600052603260045260246000fd5b600081905092915050565b6000612cdd8261241e565b612ce78185612cc7565b9350612cf781856020860161243a565b80840191505092915050565b6000612d0f8285612cd2565b9150612d1b8284612cd2565b91508190509392505050565b600081519050919050565b600082825260208201905092915050565b6000612d4e82612d27565b612d588185612d32565b9350612d6881856020860161243a565b612d7181612464565b840191505092915050565b6000608082019050612d916000830187612565565b612d9e6020830186612565565b612dab60408301856125fb565b8181036060830152612dbd8184612d43565b905095945050505050565b600081519050612dd78161238f565b92915050565b600060208284031215612df357612df2612359565b5b6000612e0184828501612dc8565b91505092915050565b7f4e487b7100000000000000000000000000000000000000000000000000000000600052601260045260246000fd5b7f4e487b7100000000000000000000000000000000000000000000000000000000600052603160045260246000fdfea2646970667358221220d605b5d6e3113cee9e215ba93eed0066867b9c55ab135fe0bcab97b018088c1864736f6c63430008160033",
  "linkReferences": {},
  "deployedLinkReferences": {}
}